{
  "contractName": "FundProjectForOwner",
  "abi": [
    {
      "inputs": [],
      "stateMutability": "nonpayable",
      "type": "constructor"
    },
    {
      "inputs": [
        {
          "internalType": "address",
          "name": "",
          "type": "address"
        }
      ],
      "name": "addressToAmountFunded",
      "outputs": [
        {
          "internalType": "uint256",
          "name": "",
          "type": "uint256"
        }
      ],
      "stateMutability": "view",
      "type": "function"
    },
    {
      "inputs": [
        {
          "internalType": "uint256",
          "name": "",
          "type": "uint256"
        }
      ],
      "name": "funders",
      "outputs": [
        {
          "internalType": "address",
          "name": "",
          "type": "address"
        }
      ],
      "stateMutability": "view",
      "type": "function"
    },
    {
      "inputs": [],
      "name": "owner",
      "outputs": [
        {
          "internalType": "address",
          "name": "",
          "type": "address"
        }
      ],
      "stateMutability": "view",
      "type": "function"
    },
    {
      "inputs": [],
      "name": "fund",
      "outputs": [],
      "stateMutability": "payable",
      "type": "function"
    },
    {
      "inputs": [],
      "name": "withdraw",
      "outputs": [],
      "stateMutability": "payable",
      "type": "function"
    }
  ],
  "bytecode": "0x608060405234801561001057600080fd5b50336000806101000a81548173ffffffffffffffffffffffffffffffffffffffff021916908373ffffffffffffffffffffffffffffffffffffffff1602179055506107f2806100606000396000f3fe60806040526004361061004a5760003560e01c80633ccfd60b1461004f5780633e47d6f3146100595780638da5cb5b14610096578063b60d4288146100c1578063dc0d3dff146100cb575b600080fd5b610057610108565b005b34801561006557600080fd5b50610080600480360381019061007b919061052c565b6102ec565b60405161008d9190610572565b60405180910390f35b3480156100a257600080fd5b506100ab610304565b6040516100b8919061059c565b60405180910390f35b6100c9610328565b005b3480156100d757600080fd5b506100f260048036038101906100ed91906105e3565b6103e3565b6040516100ff919061059c565b60405180910390f35b60008054906101000a900473ffffffffffffffffffffffffffffffffffffffff1673ffffffffffffffffffffffffffffffffffffffff163373ffffffffffffffffffffffffffffffffffffffff1614610196576040517f08c379a000000000000000000000000000000000000000000000000000000000815260040161018d90610693565b60405180910390fd5b60005b600280549050811015610242576000600282815481106101bc576101bb6106b3565b5b9060005260206000200160009054906101000a900473ffffffffffffffffffffffffffffffffffffffff1690506000600160008373ffffffffffffffffffffffffffffffffffffffff1673ffffffffffffffffffffffffffffffffffffffff1681526020019081526020016000208190555050808061023a90610711565b915050610199565b50600067ffffffffffffffff81111561025e5761025d610759565b5b60405190808252806020026020018201604052801561028c5781602001602082028036833780820191505090505b50600290805190602001906102a2929190610422565b503373ffffffffffffffffffffffffffffffffffffffff166108fc479081150290604051600060405180830381858888f193505050501580156102e9573d6000803e3d6000fd5b50565b60016020528060005260406000206000915090505481565b60008054906101000a900473ffffffffffffffffffffffffffffffffffffffff1681565b34600160003373ffffffffffffffffffffffffffffffffffffffff1673ffffffffffffffffffffffffffffffffffffffff16815260200190815260200160002060008282546103779190610788565b925050819055506002339080600181540180825580915050600190039060005260206000200160009091909190916101000a81548173ffffffffffffffffffffffffffffffffffffffff021916908373ffffffffffffffffffffffffffffffffffffffff160217905550565b600281815481106103f357600080fd5b906000526020600020016000915054906101000a900473ffffffffffffffffffffffffffffffffffffffff1681565b82805482825590600052602060002090810192821561049b579160200282015b8281111561049a5782518260006101000a81548173ffffffffffffffffffffffffffffffffffffffff021916908373ffffffffffffffffffffffffffffffffffffffff16021790555091602001919060010190610442565b5b5090506104a891906104ac565b5090565b5b808211156104c55760008160009055506001016104ad565b5090565b600080fd5b600073ffffffffffffffffffffffffffffffffffffffff82169050919050565b60006104f9826104ce565b9050919050565b610509816104ee565b811461051457600080fd5b50565b60008135905061052681610500565b92915050565b600060208284031215610542576105416104c9565b5b600061055084828501610517565b91505092915050565b6000819050919050565b61056c81610559565b82525050565b60006020820190506105876000830184610563565b92915050565b610596816104ee565b82525050565b60006020820190506105b1600083018461058d565b92915050565b6105c081610559565b81146105cb57600080fd5b50565b6000813590506105dd816105b7565b92915050565b6000602082840312156105f9576105f86104c9565b5b6000610607848285016105ce565b91505092915050565b600082825260208201905092915050565b7f596f7520617265206e6f7420746865206f776e6572206f66207468697320636f60008201527f6e74726163742100000000000000000000000000000000000000000000000000602082015250565b600061067d602783610610565b915061068882610621565b604082019050919050565b600060208201905081810360008301526106ac81610670565b9050919050565b7f4e487b7100000000000000000000000000000000000000000000000000000000600052603260045260246000fd5b7f4e487b7100000000000000000000000000000000000000000000000000000000600052601160045260246000fd5b600061071c82610559565b91507fffffffffffffffffffffffffffffffffffffffffffffffffffffffffffffffff820361074e5761074d6106e2565b5b600182019050919050565b7f4e487b7100000000000000000000000000000000000000000000000000000000600052604160045260246000fd5b600061079382610559565b915061079e83610559565b92508282019050808211156107b6576107b56106e2565b5b9291505056fea2646970667358221220beba71956bcc17f76ca6f9ee41c43c8daadfd146508e7a1fd9e54309c43bf2d764736f6c63430008110033",
  "immutableReferences": {},
  "source": "// SPDX-License-Identifier: MIT\r\n\r\n/*\r\n    This contract recevives funding from different accounts. Only the contract owner can withdraw these funds.\r\n*/\r\n\r\npragma solidity ^0.8.17;\r\n\r\ncontract FundProjectForOwner {\r\n    address public owner;\r\n\r\n    mapping(address => uint256) public addressToAmountFunded;\r\n\r\n    address[] public funders;\r\n\r\n    constructor() {\r\n        owner = msg.sender;\r\n    }\r\n\r\n    modifier onlyOwner() {\r\n        require(msg.sender == owner, \"You are not the owner of this contract!\");\r\n        _;\r\n    }\r\n\r\n    function fund() public payable {\r\n        addressToAmountFunded[msg.sender] += msg.value;\r\n        funders.push(msg.sender);\r\n    }\r\n\r\n    function withdraw() public payable onlyOwner {\r\n        // Resets map\r\n        for (\r\n            uint256 funderIndex = 0;\r\n            funderIndex < funders.length;\r\n            funderIndex++\r\n        ) {\r\n            address funder = funders[funderIndex];\r\n            addressToAmountFunded[funder] = 0;\r\n        }\r\n\r\n        // Resets funders array\r\n        funders = new address[](0);\r\n\r\n        payable(msg.sender).transfer(address(this).balance);\r\n    }\r\n}\r\n",
  "sourcePath": "C:\\Users\\Sequence\\Documents\\clonedapps\\election-app\\contracts\\FundProjectForOwner.sol",
  "compiler": {
    "name": "solc",
    "version": "0.8.17+commit.8df45f5f.Emscripten.clang"
  },
  "schemaVersion": "3.4.16",
  "updatedAt": "2024-06-13T16:07:20.730Z",
  "devdoc": {
    "kind": "dev",
    "methods": {},
    "version": 1
  },
  "userdoc": {
    "kind": "user",
    "methods": {},
    "version": 1
  }
}